:020000040800F2
:1000000000280020DD090008810900088709000890
:100010008D090008930900089909000800000000F4
:100020000000000000000000000000009F09000820
:10003000AB09000800000000B7090008C309000868
:10004000250A0008250A0008250A0008250A0008D4
:10005000250A0008250A0008250A0008250A0008C4
:10006000250A0008250A0008250A0008250A0008B4
:10007000250A0008250A0008250A0008250A0008A4
:10008000250A0008250A0008250A0008250A000894
:10009000250A0008250A0008250A0008250A000884
:1000A000250A0008250A0008250A0008250A000874
:1000B000250A0008250A000800000000250A00089B
:1000C000250A00080000000000000000250A0008C2
:1000D00000000000250A0008250A000800000000B2
:1000E000250A0008250A0008250A0008000000006B
:1000F0000000000000000000000000000000000000
:0C01000000000000000000005FF808F1A3
:10010C0010B5054C237833B9044B13B10448AFF345
:10011C0000800123237010BD0C00002000000000A3
:10012C00E817000808B5034B1BB103490348AFF3AC
:10013C00008008BD0000000010000020E817000837
:10014C0080B582B000AF78607B68002B43D1012270
:10015C001021D34800F022FF00222021D04800F0CB
:10016C001DFF00224021CE4800F018FF0022802104
:10017C00CB4800F013FF00224FF48071C84800F008
:10018C000DFF00224FF40071C54800F007FF00225C
:10019C004FF48061C24800F001FF00224FF400616F
:1001AC00BF4800F0FBFE00224FF48051BC4800F029
:1001BC00F5FE00224FF40051B94800F0EFFE00228A
:1001CC004FF48041B64800F0E9FE00224FF40041A4
:1001DC00B34800F0E3FE7B68012B43D100221021D1
:1001EC00AF4800F0DBFE01222021AD4800F0D6FE26
:1001FC0000224021AA4800F0D1FE00228021A8480C
:10020C0000F0CCFE00224FF48071A54800F0C6FE31
:10021C0000224FF40071A24800F0C0FE00224FF4FF
:10022C0080619F4800F0BAFE00224FF400619C48A8
:10023C0000F0B4FE00224FF48051994800F0AEFE5D
:10024C0000224FF40051964800F0A8FE00224FF413
:10025C008041934800F0A2FE00224FF400419048E8
:10026C0000F09CFE7B68022B43D1002210218C48AD
:10027C0000F094FE00222021894800F08FFE01221C
:10028C004021874800F08AFE00228021844800F03B
:10029C0085FE00224FF48071814800F07FFE002221
:1002AC004FF400717E4800F079FE00224FF480611B
:1002BC007B4800F073FE00224FF40061784800F098
:1002CC006DFE00224FF48051754800F067FE00224D
:1002DC004FF40051724800F061FE00224FF480414F
:1002EC006F4800F05BFE00224FF400416C4800F0B8
:1002FC0055FE7B68032B43D100221021684800F087
:10030C004DFE00222021664800F048FE00224021CC
:10031C00634800F043FE01228021614800F03EFE5C
:10032C0000224FF480715E4800F038FE00224FF43A
:10033C0000715B4800F032FE00224FF48061584897
:10034C0000F02CFE00224FF40061554800F026FE10
:10035C0000224FF48051524800F020FE00224FF44E
:10036C0000514F4800F01AFE00224FF480414C48D7
:10037C0000F014FE00224FF40041494800F00EFE3C
:10038C007B68042B43D100221021454800F006FE67
:10039C0000222021424800F001FE0022402140486A
:1003AC0000F0FCFD002280213D4800F0F7FD012209
:1003BC004FF480713A4800F0F1FD00224FF40071C7
:1003CC00374800F0EBFD00224FF48061344800F018
:1003DC00E5FD00224FF40061314800F0DFFD002202
:1003EC004FF480512E4800F0D9FD00224FF40051FB
:1003FC002B4800F0D3FD00224FF48041284800F038
:10040C00CDFD00224FF40041254800F0C7FD7B686C
:10041C00052B47D100221021214800F0BFFD0022FE
:10042C0020211F4800F0BAFD002240211C4800F09A
:10043C00B5FD002280211A4800F0B0FD00224FF4D7
:10044C008071174800F0AAFD01224FF40071144886
:10045C0000F0A4FD00224FF48061114800F09EFDD5
:10046C0000224FF400610E4800F098FD00224FF47A
:10047C0080510B4800F092FD00224FF400510848C7
:10048C0000F08CFD00224FF48041054800F086FD01
:10049C0000224FF40041024800F080FD02E000BF52
:1004AC00000801407B68062B43D100221021D5485F
:1004BC0000F074FD00222021D24800F06FFD0022D4
:1004CC004021D04800F06AFD00228021CD4800F088
:1004DC0065FD00224FF48071CA4800F05FFD0022D8
:1004EC004FF40071C74800F059FD01224FF48061B0
:1004FC00C44800F053FD00224FF40061C14800F0E5
:10050C004DFD00224FF48051BE4800F047FD002203
:10051C004FF40051BB4800F041FD00224FF48041E4
:10052C00B84800F03BFD00224FF40041B54800F004
:10053C0035FD7B68072B43D100221021B14800F018
:10054C002DFD00222021AF4800F028FD0022402183
:10055C00AC4800F023FD00228021AA4800F01EFDCB
:10056C0000224FF48071A74800F018FD00224FF4D0
:10057C000071A44800F012FD00224FF48061A148E4
:10058C0000F00CFD01224FF400619E4800F006FDC6
:10059C0000224FF480519B4800F000FD00224FF4E4
:1005AC000051984800F0FAFC00224FF48041954825
:1005BC0000F0F4FC00224FF40041924800F0EEFCF5
:1005CC007B68082B43D1002210218E4800F0E6FCFA
:1005DC00002220218B4800F0E1FC002240218948B8
:1005EC0000F0DCFC00228021864800F0D7FC0022C1
:1005FC004FF48071834800F0D1FC00224FF400715D
:10060C00804800F0CBFC00224FF480617D4800F064
:10061C00C5FC00224FF400617A4800F0BFFC0122B7
:10062C004FF48051774800F0B9FC00224FF4005190
:10063C00744800F0B3FC00224FF48041714800F084
:10064C00ADFC00224FF400416E4800F0A7FC7B6823
:10065C00092B43D1002210216A4800F09FFC002294
:10066C002021684800F09AFC00224021654800F0E7
:10067C0095FC00228021634800F090FC00224FF48E
:10068C008071604800F08AFC00224FF400715D48D4
:10069C0000F084FC00224FF480615A4800F07EFC8C
:1006AC0000224FF40061574800F078FC00224FF410
:1006BC008051544800F072FC01224FF40051514813
:1006CC0000F06CFC00224FF480414E4800F066FCB8
:1006DC0000224FF400414B4800F060FC7B680A2B71
:1006EC0043D100221021474800F058FC0022202161
:1006FC00444800F053FC00224021424800F04EFCDC
:10070C00002280213F4800F049FC00224FF4807108
:10071C003C4800F043FC00224FF40071394800F0D3
:10072C003DFC00224FF48061364800F037FC00227B
:10073C004FF40061334800F031FC00224FF480513B
:10074C00304800F02BFC00224FF400512D4800F0F3
:10075C0025FC01224FF480412A4800F01FFC0022A6
:10076C004FF40041274800F019FC7B680B2B43D158
:10077C0000221021234800F011FC002220212148E6
:10078C0000F00CFC002240211E4800F007FC002267
:10079C0080211C4800F002FC00224FF480711948A3
:1007AC0000F0FCFB00224FF40071164800F0F6FB41
:1007BC0000224FF48061134800F0F0FB00224FF44C
:1007CC000061104800F0EAFB00224FF480510D4804
:1007DC0000F0E4FB00224FF400510A4800F0DEFB6D
:1007EC0000224FF48041074800F0D8FB01224FF45F
:1007FC000041044800F0D2FB00BF18460837BD4644
:10080C0080BD00BF0008014080B582B000AF00F091
:10081C0005F900F008F800F041F809237B607868CE
:10082C00FFF78EFCFBE780B590B000AF07F1180323
:10083C0028220021184600F0C9FF3B1D00221A6037
:10084C005A609A60DA601A610223BB610123BB62B1
:10085C001023FB6200237B6307F11803184600F09A
:10086C00B5FB0346002B01D000F04CF80F237B6046
:10087C000023BB600023FB6000233B6100237B61F2
:10088C003B1D0021184600F021FE0346002B01D031
:10089C0000F038F800BF4037BD4680BD80B586B04B
:1008AC0000AF07F1080300221A605A609A60DA6000
:1008BC00124B9B69114A43F0040393610F4B9B69E4
:1008CC0003F004037B607B6800224FF6F0710C4848
:1008DC0000F064FB4FF6F073BB600123FB60002358
:1008EC003B6102237B6107F108031946044800F0C1
:1008FC00DBF900BF1837BD4680BD00BF00100240B9
:10090C000008014080B400AF72B600BFFEE70000E3
:10091C0080B485B000AF154B9B69144A43F00103BA
:10092C009361124B9B6903F00103BB60BB680F4BD7
:10093C00DB690E4A43F08053D3610C4BDB6903F047
:10094C0080537B607B680A4B5B68FB60FB6823F021
:10095C00E063FB60FB6843F08063FB60044AFB6868
:10096C00536000BF1437BD4680BC70470010024076
:10097C000000014080B400AFFEE780B400AFFEE79A
:10098C0080B400AFFEE780B400AFFEE780B400AFE8
:10099C00FEE780B400AF00BFBD4680BC704780B49A
:1009AC0000AF00BFBD4680BC704780B400AF00BF35
:1009BC00BD4680BC704780B500AF00F075F800BF35
:1009CC0080BD80B400AF00BFBD4680BC7047000046
:1009DC00FFF7F7FF0B480C490C4A002302E0D458F0
:1009EC00C4500433C4188C42F9D3094A094C00236F
:1009FC0001E013600432A242FBD300F0C3FEFFF708
:100A0C0003FF7047000000200C0000202C18000889
:100A1C000C0000202C000020FEE7000080B500AF89
:100A2C00084B1B68074A43F010031360032000F0C7
:100A3C0007F90F2000F008F8FFF76AFF00231846AB
:100A4C0080BD00BF0020024080B582B000AF78604E
:100A5C00124B1A68124B1B7819464FF47A73B3FB7E
:100A6C00F1F3B2FBF3F3184600F011F90346002B37
:100A7C0001D001230EE07B680F2B0AD80022796885
:100A8C004FF0FF3000F0E7F8064A7B681360002354
:100A9C0000E0012318460837BD4680BD0000002049
:100AAC00080000200400002080B400AF054B1B7828
:100ABC001A46054B1B681344034A136000BFBD461E
:100ACC0080BC7047080000202800002080B400AFD4
:100ADC00024B1B681846BD4680BC7047280000209E
:100AEC0080B485B000AF78607B6803F00703FB60CF
:100AFC000C4BDB68BB60BA684FF6FF031340BB605E
:100B0C00FB681A02BB68134343F0BF6343F4003322
:100B1C00BB60044ABB68D36000BF1437BD4680BCC1
:100B2C00704700BF00ED00E080B400AF044BDB6801
:100B3C001B0A03F007031846BD4680BC704700BF74
:100B4C0000ED00E080B483B000AF03463960FB7168
:100B5C0097F90730002B0ADB3B68DAB20C4997F99E
:100B6C0007301201D2B20B4483F800230AE03B6831
:100B7C00DAB20849FB7903F00F03043B1201D2B23D
:100B8C000B441A7600BF0C37BD4680BC704700BFC3
:100B9C0000E100E000ED00E080B489B000AFF86047
:100BAC00B9607A60FB6803F00703FB61FB69C3F172
:100BBC000703042B28BF0423BB61FB690433062BFA
:100BCC0002D9FB69033B00E000237B614FF0FF324D
:100BDC00BB6902FA03F3DA43BB681A407B699A409B
:100BEC004FF0FF317B6901FA03F3D9437B680B406B
:100BFC00134318462437BD4680BC704780B582B07D
:100C0C0000AF78607B68013BB3F1807F01D3012397
:100C1C000FE00A4A7B68013B53600F214FF0FF3015
:100C2C00FFF790FF054B00229A60044B07221A60D5
:100C3C00002318460837BD4680BD00BF10E000E019
:100C4C0080B582B000AF78607868FFF749FF00BFCD
:100C5C000837BD4680BD80B586B000AF0346B9608D
:100C6C007A60FB7300237B61FFF75EFF78617A6823
:100C7C00B9687869FFF790FF024697F90F30114673
:100C8C001846FFF75FFF00BF1837BD4680BD80B523
:100C9C0082B000AF78607868FFF7B0FF0346184663
:100CAC000837BD4680BD000080B48BB000AF7860C3
:100CBC00396000237B6200233B6248E101227B6A9E
:100CCC0002FA03F3FB613B681B68FA691340BB61D2
:100CDC00BA69FB699A4240F037813B685B68A34A6A
:100CEC0093425ED0A14A934275D8A14A934258D000
:100CFC009F4A93426FD89F4A934252D09D4A934247
:100D0C0069D89D4A93424CD09B4A934263D89B4AE4
:100D1C00934246D0994A93425DD8122B2AD8122B73
:100D2C0059D801A252F823F0AF0D0008890D000824
:100D3C009B0D0008DD0D0008E30D0008E30D000815
:100D4C00E30D0008E30D0008E30D0008E30D0008B7
:100D5C00E30D0008E30D0008E30D0008E30D0008A7
:100D6C00E30D0008E30D0008E30D0008910D0008E9
:100D7C00A50D0008824A934213D02CE03B68DB6837
:100D8C003B6229E03B68DB6804333B6224E03B6850
:100D9C00DB6808333B621FE03B68DB680C333B626B
:100DAC001AE03B689B68002B02D104233B6213E0E2
:100DBC003B689B68012B05D108233B627B68FA6971
:100DCC001A6109E008233B627B68FA695A6103E007
:100DDC0000233B6200E000BFBB69FF2B01D87B689E
:100DEC0001E07B6804337B61BB69FF2B02D87B6A13
:100DFC009B0002E07B6A083B9B003B617B691A68A5
:100E0C000F213B6901FA03F3DB431A40396A3B6952
:100E1C0001FA03F31A437B691A603B685B6803F0C1
:100E2C008053002B00F09080564B9B69554A43F041
:100E3C0001039361534B9B6903F00103BB60BB68D7
:100E4C00514A7B6A9B08023352F82330FB607B6A61
:100E5C0003F003039B000F2202FA03F3DB43FA684F
:100E6C001340FB607B68494A93420DD07B68484A2B
:100E7C00934207D07B68474A934201D1022304E096
:100E8C00032302E0012300E000237A6A02F003024C
:100E9C0092009340FA681343FB603B497B6A9B08C2
:100EAC000233FA6841F823203B685B6803F4801333
:100EBC00002B06D0384B9A683749BB6913438B60BB
:100ECC0006E0354B9A68BB69DB43334913408B60B2
:100EDC003B685B6803F40013002B06D02E4BDA68DA
:100EEC002D49BB691343CB6006E02B4BDA68BB6919
:100EFC00DB4329491340CB603B685B6803F4003348
:100F0C00002B06D0244B5A682349BB6913434B6012
:100F1C0006E0214B5A68BB69DB431F4913404B6009
:100F2C003B685B6803F48033002B06D01A4B1A68BD
:100F3C001949BB6913430B6006E0174B1A68BB6970
:100F4C00DB43154913400B607B6A01337B623B68C2
:100F5C001A687B6A22FA03F3002B7FF4AFAE00BF52
:100F6C0000BF2C37BD4680BC704700BF000032105C
:100F7C00000031100000221000002110000012109F
:100F8C000000111000100240000001400008014058
:100F9C00000C0140001001400004014080B483B0FB
:100FAC0000AF78600B467B8013467B707B78002B00
:100FBC0003D07A887B681A6103E07B881A047B680B
:100FCC001A6100BF0C37BD4680BC704780B586B037
:100FDC0000AF78607B68002B01D101236CE27B6849
:100FEC001B6803F00103002B00F08780924B5B68B9
:100FFC0003F00C03042B0CD08F4B5B6803F00C0339
:10100C00082B12D18C4B5B6803F48033B3F5803F13
:10101C000BD1894B1B6803F40033002B6CD07B681D
:10102C005B68002B68D1012346E27B685B68B3F5F3
:10103C00803F06D1804B1B687F4A43F4803313609A
:10104C002EE07B685B68002B0CD17B4B1B687A4ACB
:10105C0023F480331360784B1B68774A23F4802386
:10106C0013601DE07B685B68B3F5A02F0CD1724B4D
:10107C001B68714A43F4802313606F4B1B686E4AE4
:10108C0043F4803313600BE06B4B1B686A4A23F408
:10109C0080331360684B1B68674A23F4802313600A
:1010AC007B685B68002B13D0FFF710FD386108E0FC
:1010BC00FFF70CFD02463B69D31A642B01D90323BD
:1010CC00FAE15D4B1B6803F40033002BF0D014E005
:1010DC00FFF7FCFC386108E0FFF7F8FC02463B69BF
:1010EC00D31A642B01D90323E6E1534B1B6803F499
:1010FC000033002BF0D100E000BF7B681B6803F0CD
:10110C000203002B63D04C4B5B6803F00C03002BE9
:10111C000BD0494B5B6803F00C03082B1CD1464BDE
:10112C005B6803F48033002B16D1434B1B6803F030
:10113C000203002B05D07B681B69012B01D0012316
:10114C00BAE13D4B1B6823F0F8027B685B69DB005E
:10115C00394913430B603AE07B681B69002B20D0A4
:10116C00364B01221A60FFF7B1FC386108E0FFF73B
:10117C00ADFC02463B69D31A022B01D903239BE138
:10118C002D4B1B6803F00203002BF0D02A4B1B687D
:10119C0023F0F8027B685B69DB00274913430B6083
:1011AC0015E0264B00221A60FFF790FC386108E02E
:1011BC00FFF78CFC02463B69D31A022B01D903239F
:1011CC007AE11D4B1B6803F00203002BF0D17B6806
:1011DC001B6803F00803002B3AD07B689B69002B3B
:1011EC0019D0174B01221A60FFF770FC386108E028
:1011FC00FFF76CFC02463B69D31A022B01D903237F
:10120C005AE10D4B5B6A03F00203002BF0D0012076
:10121C0000F09AFA1CE00A4B00221A60FFF756FC09
:10122C0038610FE0FFF752FC02463B69D31A022BE0
:10123C0008D9032340E100BF0010024000004242E5
:10124C00800442429E4B5B6A03F00203002BE9D1FF
:10125C007B681B6803F00403002B00F0A6800023BE
:10126C00FB75974BDB6903F08053002B0DD1944B2E
:10127C00DB69934A43F08053D361914BDB6903F0F4
:10128C008053BB60BB680123FB758E4B1B6803F45A
:10129C008073002B18D18B4B1B688A4A43F48073E4
:1012AC001360FFF713FC386108E0FFF70FFC0246F0
:1012BC003B69D31A642B01D90323FDE0814B1B68D6
:1012CC0003F48073002BF0D07B68DB68012B06D114
:1012DC007B4B1B6A7A4A43F0010313622DE07B6857
:1012EC00DB68002B0CD1764B1B6A754A23F001038B
:1012FC001362734B1B6A724A23F0040313621CE0E3
:10130C007B68DB68052B0CD16D4B1B6A6C4A43F078
:10131C00040313626A4B1B6A694A43F001031362AC
:10132C000BE0674B1B6A664A23F001031362644BA4
:10133C001B6A634A23F0040313627B68DB68002B8F
:10134C0015D0FFF7C3FB38610AE0FFF7BFFB02467D
:10135C003B69D31A41F28832934201D90323ABE0A3
:10136C00574B1B6A03F00203002BEED014E0FFF77F
:10137C00ADFB38610AE0FFF7A9FB02463B69D31AC3
:10138C0041F28832934201D9032395E04C4B1B6AFE
:10139C0003F00203002BEED1FB7D012B05D1484B52
:1013AC00DB69474A23F08053D3617B68DB69002BF0
:1013BC0000F08180424B5B6803F00C03082B61D07A
:1013CC007B68DB69022B46D13F4B00221A60FFF78A
:1013DC007DFB386108E0FFF779FB02463B69D31AC5
:1013EC00022B01D9032367E0354B1B6803F0007314
:1013FC00002BF0D17B681B6AB3F5803F08D1304BD2
:10140C005B6823F400327B689B682D4913434B6067
:10141C002B4B5B6823F474127B68196A7B685B6ADC
:10142C000B43274913434B60274B01221A60FFF7EC
:10143C004DFB386108E0FFF749FB02463B69D31AC4
:10144C00022B01D9032337E01D4B1B6803F00073FB
:10145C00002BF0D02FE01C4B00221A60FFF736FB5C
:10146C00386108E0FFF732FB02463B69D31A022BC6
:10147C0001D9032320E0124B1B6803F00073002BEF
:10148C00F0D118E07B68DB69012B01D1012313E05B
:10149C000B4B5B68FB60FB6803F480327B681B6A58
:1014AC009A4206D1FB6803F470127B685B6A9A421D
:1014BC0001D0012300E0002318461837BD4680BD3B
:1014CC0000100240007000406000424280B584B0C1
:1014DC0000AF786039607B68002B01D10123D0E02C
:1014EC006A4B1B6803F007033A689A4210D9674BA2
:1014FC001B6823F0070265493B6813430B60634B81
:10150C001B6803F007033A689A4201D00123B8E044
:10151C007B681B6803F00203002B20D07B681B68E0
:10152C0003F00403002B05D0594B5B68584A43F475
:10153C00E06353607B681B6803F00803002B05D045
:10154C00534B5B68524A43F460535360504B5B6897
:10155C0023F0F0027B689B684D4913434B607B681A
:10156C001B6803F00103002B40D07B685B68012BE8
:10157C0007D1474B1B6803F40033002B15D1012313
:10158C007FE07B685B68022B07D1414B1B6803F043
:10159C000073002B09D1012373E03D4B1B6803F052
:1015AC000203002B01D101236BE0394B5B6823F064
:1015BC0003027B685B68364913434B60FFF786FA7E
:1015CC00F8600AE0FFF782FA0246FB68D31A41F290
:1015DC008832934201D9032353E02D4B5B6803F00F
:1015EC000C027B685B689B009A42EBD1274B1B6813
:1015FC0003F007033A689A4210D2244B1B6823F07D
:10160C00070222493B6813430B60204B1B6803F015
:10161C0007033A689A4201D0012332E07B681B68C9
:10162C0003F00403002B08D0194B5B6823F4E06231
:10163C007B68DB68164913434B607B681B6803F0BF
:10164C000803002B09D0124B5B6823F460527B68B3
:10165C001B69DB000E4913434B6000F021F8024676
:10166C000B4B5B681B0903F00F030A49CB5C22FA96
:10167C0003F3094A1360094B1B681846FFF7E4F99A
:10168C00002318461037BD4680BD00BF0020024025
:10169C000010024000180008000000200400002088
:1016AC0080B487B000AF0023FB600023BB60002335
:1016BC007B6100237B6000233B611E4B5B68FB60FE
:1016CC00FB6803F00C03042B02D0082B03D027E09B
:1016DC00194B3B6127E0FB689B0C03F00F03174A87
:1016EC00D35C7B60FB6803F48033002B10D0114B70
:1016FC005B685B0C03F00103114AD35CBB607B6835
:10170C000D4A02FB03F2BB68B2FBF3F37B6104E00E
:10171C007B680C4A02FB03F37B617B693B6102E053
:10172C00054B3B6100BF3B6918461C37BD4680BC6E
:10173C00704700BF0010024000127A001018000819
:10174C002018000800093D0080B485B000AF786017
:10175C000A4B1B680A4AA2FB03235B0A7A6802FB4A
:10176C0003F3FB6000BFFB685A1EFA60002BF9D133
:10177C0000BF00BF1437BD4680BC7047000000207E
:10178C00D34D621070B500260C4D0D4C641BA4108B
:10179C00A64209D100F022F800260A4D0A4C641B1F
:1017AC00A410A64205D170BD55F8043B98470136EC
:1017BC00EEE755F8043B98470136F2E72418000889
:1017CC0024180008241800082818000803460244AE
:1017DC00934200D1704703F8011BF9E7F8B500BF3D
:1017EC00F8BC08BC9E467047F8B500BFF8BC08BCF6
:0417FC009E4670474E
:1018000000000000000000000102030406070809B0
:1018100002030405060708090A0B0C0D0E0F101031
:0418200001020000C1
:041824003101000886
:041828000D010008A6
:0C182C000024F400100000000100000087
:04000005080009DD09
:00000001FF
